:060000000A128A110E280D
:10000800FE00030EF1000408F2000A08F3000A12C9
:100018008A11122C0A128A111128F901831320302F
:1000280084003C300A128A1152240A128A11830170
:100038000A128A11F42B0A3083120313C00000300D
:10004800C1006430F4000030F5003B08C700C80167
:100058004708F6004808F7000A128A1171220A12A6
:100068008A11750883120313C3007408C2000A12A8
:100078008A113B230A128A11831203134008C9000C
:100088004908B7000A30C0000030C1000A30F40047
:100098000030F5003B08C700C8014708F6004808CB
:1000A800F7000A128A1171220A128A11750883123E
:1000B8000313C3007408C2000A128A113B230A12F0
:1000C8008A11831203134008C9004908B6000A3090
:1000D800C0000030C1003B08C700C8014708C20083
:1000E8004808C3000A128A113B230A128A11831294
:1000F80003134008C9004908B5000A30C0000030A1
:10010800C1006430F4000030F5003A08C700C801A7
:100118004708F6004808F7000A128A1171220A12E5
:100128008A11750883120313C3007408C2000A12E7
:100138008A113B230A128A11831203134008C9004B
:100148004908B4000A30C0000030C1000A30F40089
:100158000030F5003A08C700C8014708F60048080B
:10016800F7000A128A1171220A128A11750883127D
:100178000313C3007408C2000A128A113B230A122F
:100188008A11831203134008C9004908B3000A30D2
:10019800C0000030C1003A08C700C8014708C200C3
:1001A8004808C3000A128A113B230A128A118312D3
:1001B80003134008C9004908B2000A30C0000030E3
:1001C800C1006430F4000030F5003908C700C801E8
:1001D8004708F6004808F7000A128A1171220A1225
:1001E8008A11750883120313C3007408C2000A1227
:1001F8008A113B230A128A11831203134008C9008B
:100208004908B1000A30C0000030C1000A30F400CB
:100218000030F5003908C700C8014708F60048084B
:10022800F7000A128A1171220A128A1175088312BC
:100238000313C3007408C2000A128A113B230A126E
:100248008A11831203134008C9004908B0000A3014
:10025800C0000030C1003908C700C8014708C20003
:100268004808C3000A128A113B230A128A11831212
:1002780003134008C9004908AF000A30C000003025
:10028800C1006430F4000030F5003808C700C80128
:100298004708F6004808F7000A128A1171220A1264
:1002A8008A11750883120313C3007408C2000A1266
:1002B8008A113B230A128A11831203134008C900CA
:1002C8004908AE000A30C0000030C1000A30F4000E
:1002D8000030F5003808C700C8014708F60048088C
:1002E800F7000A128A1171220A128A1175088312FC
:1002F8000313C3007408C2000A128A113B230A12AE
:100308008A11831203134008C9004908AD000A3056
:10031800C0000030C1003808C700C8014708C20043
:100328004808C3000A128A113B230A128A11831251
:1003380003134008C9004908AC003708303EC7001D
:100348004708AB003608303EC7004708AA00350802
:10035800303EC7004708A9003408303EC7004708A8
:10036800A8003308303EC7004708A7003208303ECF
:10037800C7004708A6003108303EC7004708A50057
:100388003008303EC7004708A4002F08303EC70099
:100398004708A3002E08303EC7004708A2002D08D2
:1003A800303EC7004708A1002C08303EC700470868
:1003B800A00008002C2A831203132B089900702A26
:1003C800831203132A089900702A83120313290839
:1003D8009900702A2C30831203139900702A831213
:1003E800031328089900702A831203132708990019
:1003F800702A8312031326089900702A83120313A4
:1004080025089900702A8312031324089900702A7A
:100418008312031323089900702A831203132208F6
:100428009900702A8312031321089900702A8312F5
:10043800031320089900702A0A30831203139900C5
:10044800702A0D30831203139900702AF901702A5B
:100458007908013A0319DF29033A0319E429013A13
:100468000319E929073A0319EE29013A0319F3296F
:10047800033A0319F829013A0319FD290F3A031918
:10048800EE29013A0319022A033A0319072A013A05
:1004980003190C2A073A0319EE29013A0319112AFC
:1004A800033A0319162A013A03191B2A1F3A03199A
:1004B800EE29013A0319DF29033A0319E429013A1D
:1004C8000319E929073A0319202A013A0319252AA9
:1004D800363A03192A2A702A080083120313BD0129
:1004E800F51F772A782A7F2AF409F509F40A0319EF
:1004F800F50ABD01BD0AF71F822A832A8C2AF6094C
:10050800F709F60A0319F70A0130F8007808BD065A
:10051800BE01BF01740875040319932A942ACB2AD3
:10052800BC01BC0AA22A01300310F40DF50DFF3EF0
:10053800031D982A0130F8007808BC07F51FA52A82
:10054800A62A972A01300310BE0DBF0DFF3E031DDA
:10055800A72A75087702031DB32A74087602031CBC
:10056800B62AB72ABE2A7408F6027508031CF703D0
:10057800F7023E1401300310F50CF40CFF3E031D86
:10058800BF2A0130BC02031DCA2ACB2AA62A3D086D
:100598000319CF2AD02AD52ABE09BF09BE0A0319D2
:1005A800BF0A3F08F5003E08F40008008312031351
:1005B8009F18DF2AE02A3A2B1F2B1E08F400740824
:1005C800BB00A630F400F40BE72A000083120313E3
:1005D8001F08C33904389F00302B1E08F400740824
:1005E800BA00A630F400F40BF72A000083120313B4
:1005F8001F08C33908389F00302B1E08F400740800
:10060800B900A630F400F40B072B00008312031383
:100618001F08C3390C389F00302B1E08F4007408DB
:10062800B800A630F400F40B172B0000C330831277
:1006380003139F05302B1F0CF400740C0F39003A7C
:100648000319E12A013A0319F12A033A0319012B84
:10065800013A0319112B302BC730F400332BF40B5C
:10066800322B362B372B831203139F140800831267
:100678000313C601C31F412B422B492BC209C309CF
:10068800C20A0319C30AC601C60AC11F4C2B4D2B47
:10069800522BC009C109C00A0319C10A4008410404
:1006A8000319572B582B872BC501C50A662B013018
:1006B8000310C00DC10DFF3E031D5C2B0130C400AB
:1006C8004408C507C11F692B6A2B5B2B41084302ED
:1006D800031D702B40084202031C732B742B7A2BCA
:1006E8004008C2024108031CC303C30201300310BF
:1006F800C10CC00CFF3E031D7B2B0130C502031D3E
:10070800862B872B6A2B460803198B2B8C2B912B56
:10071800C209C309C20A0319C30A4308C10042082F
:10072800C00008008316031788018901081488147B
:1007380008158815831603130514851405158515E2
:1007480007138717831203138501870104300A12E0
:100758008A11C5230A128A110A128A1143240A121D
:100768008A110A128A112D240A128A118B170B1763
:10077800831603130C168C16831203130C128C1297
:100788000800F400E52B831603130F088F3940384F
:100798008F000F14F32B831603130F088F3950386B
:1007A8008F000F14F32B831603130F088F3960384B
:1007B8008F000F14F32B7030831603138F040F145C
:1007C800F32B7408013A0319C72B033A0319CF2BEB
:1007D800063A0319D72B0C3A0319DF2BF32B080021
:1007E8000A128A1196230A128A11C7308312031338
:1007F800CA00FE2BCA0BFD2B012C831203139F1476
:100808000A128A11DA220A128A110A128A111F2080
:100818000A128A11042C0A128A110E288312031351
:100828000C1E172C182C242C0130F0007008F90726
:100838000A128A11DE210A128A11831203130C127A
:1008480073088A0072088400710E8300FE0E7E0E03
:1008580009008316031318121815181383160317A3
:100868008711831603139A01193099008312031311
:10087800981718131812831603139816080083166E
:1008880003139F131F129F12831203131F083F396C
:1008980040389F00C3309F051F1408006400800182
:0C08A800840A0406031900340406532CD3
:04400E00D420FF3F7C
:00000001FF
