:060000000A128A110E280D
:10000800FE00030EF1000408F2000A08F3000A12C9
:100018008A11062C0A128A111128F901831320303B
:1000280084003C300A128A1146240A128A1183017C
:100038000A128A11E82B0A3083120313C000003019
:10004800C1006430F4000030F5003B08C700C80167
:100058004708F6004808F7000A128A1165220A12B2
:100068008A11750883120313C3007408C2000A12A8
:100078008A112F230A128A11831203134008C90018
:100088004908B7000A30C0000030C1000A30F40047
:100098000030F5003B08C700C8014708F6004808CB
:1000A800F7000A128A1165220A128A11750883124A
:1000B8000313C3007408C2000A128A112F230A12FC
:1000C8008A11831203134008C9004908B6000A3090
:1000D800C0000030C1003B08C700C8014708C20083
:1000E8004808C3000A128A112F230A128A118312A0
:1000F80003134008C9004908B5000A30C0000030A1
:10010800C1006430F4000030F5003A08C700C801A7
:100118004708F6004808F7000A128A1165220A12F1
:100128008A11750883120313C3007408C2000A12E7
:100138008A112F230A128A11831203134008C90057
:100148004908B4000A30C0000030C1000A30F40089
:100158000030F5003A08C700C8014708F60048080B
:10016800F7000A128A1165220A128A117508831289
:100178000313C3007408C2000A128A112F230A123B
:100188008A11831203134008C9004908B3000A30D2
:10019800C0000030C1003A08C700C8014708C200C3
:1001A8004808C3000A128A112F230A128A118312DF
:1001B80003134008C9004908B2000A30C0000030E3
:1001C800C1006430F4000030F5003908C700C801E8
:1001D8004708F6004808F7000A128A1165220A1231
:1001E8008A11750883120313C3007408C2000A1227
:1001F8008A112F230A128A11831203134008C90097
:100208004908B1000A30C0000030C1000A30F400CB
:100218000030F5003908C700C8014708F60048084B
:10022800F7000A128A1165220A128A1175088312C8
:100238000313C3007408C2000A128A112F230A127A
:100248008A11831203134008C9004908B0000A3014
:10025800C0000030C1003908C700C8014708C20003
:100268004808C3000A128A112F230A128A1183121E
:1002780003134008C9004908AF000A30C000003025
:10028800C1006430F4000030F5003808C700C80128
:100298004708F6004808F7000A128A1165220A1270
:1002A8008A11750883120313C3007408C2000A1266
:1002B8008A112F230A128A11831203134008C900D6
:1002C8004908AE000A30C0000030C1000A30F4000E
:1002D8000030F5003808C700C8014708F60048088C
:1002E800F7000A128A1165220A128A117508831208
:1002F8000313C3007408C2000A128A112F230A12BA
:100308008A11831203134008C9004908AD000A3056
:10031800C0000030C1003808C700C8014708C20043
:100328004808C3000A128A112F230A128A1183125D
:1003380003134008C9004908AC003708303EC7001D
:100348004708AB003608303EC7004708AA00350802
:10035800303EC7004708A9003408303EC7004708A8
:10036800A8003308303EC7004708A7003208303ECF
:10037800C7004708A6003108303EC7004708A50057
:100388003008303EC7004708A4002F08303EC70099
:100398004708A3002E08303EC7004708A2002D08D2
:1003A800303EC7004708A1002C08303EC700470868
:1003B800A00008002C2A831203132B089900642A32
:1003C800831203132A089900642A83120313290845
:1003D8009900642A2C30831203139900642A83122B
:1003E800031328089900642A831203132708990025
:1003F800642A8312031326089900642A83120313BC
:1004080025089900642A8312031324089900642A92
:100418008312031323089900642A83120313220802
:100428009900642A8312031321089900642A83120D
:10043800031320089900642A0A30831203139900D1
:10044800642A0D30831203139900642AF901642A7F
:100458007908013A0319DF29033A0319E429013A13
:100468000319E929073A0319EE29013A0319F3296F
:10047800033A0319F829013A0319FD290F3A031918
:10048800EE29013A0319022A033A0319072A013A05
:1004980003190C2A073A0319EE29013A0319112AFC
:1004A800033A0319162A013A03191B2A1F3A03199A
:1004B800202A013A0319252A0F3A03192A2A642AFD
:1004C800080083120313BD01F51F6B2A6C2A732AD7
:1004D800F409F509F40A0319F50ABD01BD0AF71F65
:1004E800762A772A802AF609F709F60A0319F70AFD
:1004F8000130F8007808BD06BE01BF017408750414
:100508000319872A882ABF2ABC01BC0A962A013007
:100518000310F40DF50DFF3E031D8C2A0130F80081
:100528007808BC07F51F992A9A2A8B2A01300310EC
:10053800BE0DBF0DFF3E031D9B2A75087702031DE4
:10054800A72A74087602031CAA2AAB2AB22A7408BE
:10055800F6027508031CF703F7023E140130031076
:10056800F50CF40CFF3E031DB32A0130BC02031D39
:10057800BE2ABF2A9A2A3D080319C32AC42AC92AAF
:10058800BE09BF09BE0A0319BF0A3F08F5003E08A5
:10059800F4000800831203139F18D32AD42A2E2BA1
:1005A800132B1E08F4007408BB00A630F400F40BEB
:1005B800DB2A0000831203131F08C33904389F0085
:1005C800242B1E08F4007408BA00A630F400F40BBB
:1005D800EB2A0000831203131F08C33908389F0051
:1005E800242B1E08F4007408B900A630F400F40B9C
:1005F800FB2A0000831203131F08C3390C389F001D
:10060800242B1E08F4007408B800A630F400F40B7C
:100618000B2B0000C330831203139F05242B1F0CE0
:10062800F400740C0F39003A0319D52A013A03195A
:10063800E52A033A0319F52A013A0319052B242B55
:10064800C730F400272BF40B262B2A2B2B2B8312D5
:1006580003139F14080083120313C601C31F352B0D
:10066800362B3D2BC209C309C20A0319C30AC601A6
:10067800C60AC11F402B412B462BC009C109C00A1D
:100688000319C10A4008410403194B2B4C2B7B2B3F
:10069800C501C50A5A2B01300310C00DC10DFF3E1C
:1006A800031D502B0130C4004408C507C11F5D2B32
:1006B8005E2B4F2B41084302031D642B4008420266
:1006C800031C672B682B6E2B4008C2024108031CD1
:1006D800C303C30201300310C10CC00CFF3E031D4D
:1006E8006F2B0130C502031D7A2B7B2B5E2B46082E
:1006F80003197F2B802B852BC209C309C20A031952
:10070800C30A4308C1004208C00008008316031743
:10071800880189010814881408158815831603139D
:1007280005148514051585150713871783120313F8
:100738008501870104300A128A11B9230A128A1125
:100748000A128A1137240A128A110A128A112124DC
:100758000A128A118B170B17831603130C168C16A3
:10076800831203130C128C120800F400D92B831681
:1007780003130F088F3940388F000F14E72B8316A7
:1007880003130F088F3950388F000F14E72B831687
:1007980003130F088F3960388F000F14E72B703060
:1007A800831603138F040F14E72B7408013A0319F7
:1007B800BB2B033A0319C32B063A0319CB2B0C3A6C
:1007C8000319D32BE72B08000A128A118A230A126D
:1007D8008A11C73083120313CA00F22BCA0BF12BFC
:1007E800F52B831203139F140A128A11CE220A12C0
:1007F8008A110A128A111F200A128A11F82B0A126A
:100808008A110E28831203130C1E0B2C0C2C182C87
:100818000130F0007008F9070A128A11DE210A1265
:100828008A11831203130C1273088A007208840059
:10083800710E8300FE0E7E0E090083160313181234
:1008480018151813831603178711831603139A01B3
:100858001930990083120313981718131812831666
:10086800031398160800831603139F131F129F1271
:10087800831203131F083F3940389F00C3309F0578
:100888001F14080064008001840A04060319003458
:040898000406472CDF
:04400E00D420FF3F7C
:00000001FF
