:020000040000FA
:060000000A128A110C280F
:10000800FE00030EF1000A08F2000A128A116C2899
:100018000A128A110F28F50183010A128A11882809
:10002800F3003428831603130F088F3940388F00E4
:100038000F144228831603130F088F3950388F0086
:100048000F144228831603130F088F3960388F0066
:100058000F1442287030831603138F040F1442289C
:100068007308013A03191628033A03191E28063A99
:10007800031926280C3A03192E284228080083164B
:100088000317081489018316031305140713871728
:1000980088018312031385018701880189010430CF
:1000A8000A128A1114200A128A110A128A119F2030
:1000B8000A128A118B17831603130C178312031362
:1000C8000C13831603138C16831203138C12080067
:1000D800831203130C1F7128722881281E08F00050
:1000E8007008F500C730F0007928F00B78287C28D4
:1000F8007D28831203139F140C1372088A00710E53
:100108008300FE0E7E0E09000A128A1143200A128D
:100118008A11C730F4009028F40B8F28932894286C
:10012800831203139F14750899007508880097288F
:100138000A128A110C28831603131813181218159B
:10014800831603178711831603139A0167309900E2
:100158000C1698168312031398171813181608000C
:04400E00D420FF3F7C
:00000001FF
